:020000041000EA
:10000000002008205D0100101B0100101D010010E0
:100010001101001011010010110100101101001058
:100020001901001019010010190100101F01001022
:10003000110100101901001021010010230100100E
:100040001101001011010010110100101101001028
:100050001101001011010010110100101101001018
:100060001101001011010010110100101101001008
:1000700011010010110100101101001011010010F8
:1000800011010010110100101101001011010010E8
:1000900011010010110100101101001011010010D8
:1000A00011010010110100101101001011010010C8
:1000B00011010010110100101101001011010010B8
:1000C00011010010110100101101001011010010A8
:1000D0001101001011010010110100101101001098
:1000E0001101001011010010110100101101001088
:1000F0001101001011010010110100101101001078
:100100001101001011010010110100101101001067
:10011000EFF30580103800BE00BE00BE00BE00BE7A
:1001200000BE00BEF2EB88711423051040230510B9
:10013000A001001090A31AE7D3DEFFFF42012110B7
:10014000FF0100003C350500793512AB4FF000008F
:100150001E49086006C881F3088810474FF05040D8
:10016000006810B14FF00000F2E70DA40ECC00299A
:1001700002D000F012F8F9E71549164A002000E015
:1001800001C19142FCD11449884714498847144958
:10019000884700BEFDE701C901C29A42FBD3704700
:1001A000402305101001002044140020743605106F
:1001B00000000820000008207436051000100820F8
:1001C00000100820000000007047000008ED00E06B
:1001D00044140020A81A0120152300104102001029
:1001E0000D230010F8B500BF08B5034B1BB1034940
:1001F0000348AFF3008008BD00000000041A01208E
:1002000018F003100B4630B5054683B00192CC8838
:10021000B1F902209B88B1F900100134A41A01330E
:100220005B1A24B2054800941BB200F0E9FC284692
:1002300003B0BDE8304013F049BE00BFB81501203F
:1002400010B502F04BF94FF4FA6001F031FC1920BF
:1002500000F022FD19244FF0010343EC444043EC2D
:1002600040401D4800F042FB4FF0000343EC40408B
:100270001A4802F04BF905F09BFC194802F046F9C8
:10028000642016F07BF918B3164802F03FF9164CBB
:100290004FF4C85300221549204613F0E7FB1448D9
:1002A00013F0C0FB1248134A134B02604361C46051
:1002B00013F0EAFB3EF074F8052013F007FF0F4837
:1002C00002F024F917F0B4F9052001F0F1FBF3E78F
:1002D0000B4802F01BF9DAE7B815012018F00310FB
:1002E0002CF0031038F003107C0C01202CDA0020D5
:1002F0002C0C01204001F0000502001050F003100A
:1003000044F0031010B5054C82B0032304220521EC
:100310000094034800F0C8FA02B010BD0000084085
:10032000B8150120002230B5B0F9065083B004683A
:10033000019100951146E468B0F90430A04703B07C
:1003400030BD00BF2DE9F04F154685B0BDF938A08E
:100350000E46AAEB050BBBF1000F0A46A3EB010109
:10036000B8BFCBF1000B0029B8BF49428B45074607
:10037000BDF83CE059DC5446AC4650462A469A4605
:10038000354623466646554538DC801A80EAE079D2
:10039000A9EBE079AAEB0500C0F3C03404FA80F4BD
:1003A0009E4280B24FEA640445DA0123B846CDE9A3
:1003B00002031FFA89F90091CDF804E0D8F8003063
:1003C00040469F68009B9B45CBBF2A462946314645
:1003D0003246019BB847A4EB09031CB20135002C3F
:1003E0002DB29BB205DA029A13441CB2039B1E4441
:1003F00036B25545E2DD05B0BDE8F08FA2EB00094D
:10040000A5EB0A00B9F1000FC0F3C03404FA80F480
:10041000B8BFC9F100099E422A461E46554680B221
:100420004FEA640403DD9246BFE71846ABE74FF09E
:10043000FF339246BAE74FF0FF33B7E72DE9F043B9
:1004400016460746884683B0BDF92840013BBDF8F3
:100450002C900B44013C1DB2344424B22B46009234
:10046000CDF80490FFF76EFF2B46224641463846F2
:10047000CDE90049FFF766FF43464146324638461C
:10048000CDE90049FFF75EFF324638462B46294644
:10049000CDF82C900A9403B0BDE8F043FFF752BFAB
:1004A0002DE9F04F91B0BDF86840834606949DF861
:1004B00074400D460A9414464269BDF86C809DF85C
:1004C0007090002A00F08B8011895B1ADBB2D2E9B0
:1004D000002101EBC30631F8337096F90630F1784C
:1004E000904696F802A096F905E00C9351B14FF0B2
:1004F000000CBAF1000F08D10CF1010C5FFA8CFC72
:100500006145F9D811B0BDE8F08FA8B2CDE907BEBA
:100510006546E346A3B20D9300EB0E03CDE90E133F
:1005200009905E460C9B0A9A0D99634403FB0213E3
:100530001BB203930FFA89F3049313B2CDF82CB0D6
:100540000024E3460593029605E00134E4B26D0011
:10055000A245EDB224D9029B590703F1010608BF59
:1005600018F80750F2B2029207F1010208BF97B2E1
:100570002B06EAD5B9F1010F02D10A9B012B1FD03E
:10058000069B07980193059B0093089B1919099BEB
:1005900001FB0931DDE9032309B2FFF74FFFD4E77F
:1005A000DC460E9BDDF82CB00CF1010C5FFA8CFCE4
:1005B000D34463455FFA8BFBB3D811B0BDE8F08F2D
:1005C0000798DDE90C1203680A440F999B685A44A6
:1005D00061181E4612B2069B09B2B047B5E7427ECB
:1005E000002A00F0A080524A03EB830313449C4688
:1005F0004B46ADB2D946CDF80880AE46A8469B46DC
:100600001FFA84FA6A1D92B2CDF81CA0069FDDF88D
:1006100028A00C920D950E940FFA88F31CF8016B2C
:1006200003930FFA8BF304930FFA8AF3082400253F
:10063000CDE908E80593CDF82CC01BE0BBF1010F14
:10064000D9F80030AAB225D01AFB02F20197059919
:1006500048460091D3F80C80079B1A4412B2DDE99A
:100660000313C047013C013514F0FF046DB24FEA9B
:1006700056061DD0F007E1D4029B9F42F2D0BBF199
:10068000010FD9F80030AAB23FD002991AFB02F24A
:100690000191DCE7BAF1010FD6D10799D3F80880B0
:1006A0000A443B464846BDF9201012B2C047D9E77C
:1006B000DDE908E80C9B0EF1010E1FFA8EFED8440E
:1006C0007345DDF82CC01FFA88F8A5D1DDE90D547B
:1006D0005B46DDF80880CB469946069B43453FF4D0
:1006E00011AF09EB89030A9A2B441BB2651E05EB77
:1006F000C2051946224658462DB2CDF86C801A958F
:1007000011B0BDE8F04FFFF71DBEBAF1010FBCD12B
:100710000799D3F808800A444846029BBDF9201087
:1007200012B2C0479EE7AF2B84BF0133DBB25AE75A
:100730003CF703102DE9F0414369044684B0002BD7
:100740005CD00A294ED00D2954D01A7A914251D347
:10075000987A88424ED35D688A1A05EBC205AA785A
:10076000B4F90800267B002A37D0EF78AFB3277E94
:10077000B4F904E0B4F90AC094F80D807FB195F99A
:100780000570174406FB0707774508DD0020208128
:100790001B7B03FB08C30FFA83FCA4F80AC0704557
:1007A0001BDAB4F90630634517DD062316FB030395
:1007B000002B12DD0CEBC803002B0EDDCDE9026827
:1007C0000B460146208A62460190E089009020464F
:1007D000FFF766FEB4F90800267B2B7903FB0600C1
:1007E000208107E00020208162891B7B617B01FB67
:1007F00003236381012004B0BDE8F0810A2937D0CA
:100800000D29F7D0267EB0F90800257BB4F904C085
:10081000B4F90A20677B2EB14FF0060E15FB0E0EC1
:10082000E6452FDC60451ADAB4F90630934216DD4E
:10083000062315FB0303002B11DD02EBC703002B7E
:100840000DDD029503970B460146208A0190E08951
:1008500000902046FFF724FEB4F90800257B05EB45
:10086000450500EB45002081012004B0BDE8F08182
:100870004289417B038102EBC1034381012004B023
:10088000BDE8F08102EBC70212B2184623816281F3
:10089000C8E700BF704700BF10B504462C2101F027
:1008A000FFFC204610BD00BF2DE9F041002440F2BE
:1008B00001174FF6FF764FF0010EDFF82C80094D3F
:1008C0004362069BC0E90712C0F804808781C0F824
:1008D0000E60A0F818E00560846044618362BDE8A2
:1008E000F08100BF44FC03104001F0002DE9F04707
:1008F00004468CB0C06900F0CFF94FF00105E36900
:1009000045EC443045EC4030206A00F0C5F9236ADC
:1009100045EC4430606A00F0BFF9636A45EC44304E
:100920003849A06A04F0F8F90121122000F096F984
:100930000121132000F092F90121102000F08EF91E
:100940004FF00007636A47EC4030322001F0B0F806
:10095000636A45EC4030C82001F0AAF84FF0010C62
:100960004FF014086646E146DFF89CA00DF1080E32
:10097000BAE80F007546AEE80F00BAE80F00AEE81F
:100980000F009AE803004EF8040BAEF80010E3697C
:100990008DF807C0033547EC4030236A47EC403000
:1009A0000122A06A0DF107013EF00AFBE36949EC60
:1009B0004030012E0ED047EC4030236A49EC4030E5
:1009C000013E32462946A06A3EF0FAFAE36949EC54
:1009D00040303544B8F1000F06D12E785EB195F85D
:1009E000018095F802C0D2E708EB880001F060F8BA
:1009F0002E78002EF3D131462046FFF793FC0CB041
:100A0000BDE8F0878096980058FC03102DE9F04768
:100A1000002590462E462A248AB2013B82B0134418
:100A2000120ABDF9287062F3070561F30F25C3F3BD
:100A3000072262F317459BB21FFA88F9013F63F35F
:100A40001F654F448DF80340019504463546C36940
:100A5000BFB246EC4030036A46EC403001220DF153
:100A60000301806A3EF0ACFA4FF0010AE3694AECF8
:100A7000403046EC4030236A4AEC40300422A06A01
:100A80000DEB02013EF09CFAE1694AEC40104FEA9E
:100A9000192262F307062B2268F30F268DF8032034
:100AA0003A0A62F3174667F31F66019645EC401059
:100AB000236A45EC40300122A06A0DF103013EF0AB
:100AC0007FFAE3694AEC403045EC4030236A4AEC57
:100AD00040300422A06A01A93EF072FAE3694AECB0
:100AE00040302C228DF8032045EC4030236A45EC41
:100AF00040300122A06A0DF103013EF061FAE36982
:100B00004AEC403002B0BDE8F08700BFB1F1000C04
:100B100010DB70B51D46B0F904300446634584B05F
:100B200006DD002A964603DBB0F90630934202DC6C
:100B300004B070BD704701266DBA33460096FFF7CA
:100B400065FF4FF00002E369ADF80C5042EC403015
:100B5000236A46EC40300222A06A03A93EF030FA34
:100B6000E36946EC403004B070BD00BFF0B51C46F0
:100B7000B0F9043085B08B42BDF92860BDF82C7007
:100B80003CDD0546B0F90600904237DD0029BEBFC6
:100B900009190CB200218E46002ABEBF921916B266
:100BA0000022A6449E45C4BF5B1A1CB2B318834200
:100BB000C4BF801A06B22346284600967FBAFFF7C4
:100BC00025FF4FF00002EB69ADF80C7042EC4030AD
:100BD0004FF001012A6A41EC402004FB06F64EB1B9
:100BE00000240222A86A03A901343EF0E9F9B442C4
:100BF000F7D1EB694FF0010242EC403005B0F0BD97
:100C0000F0B5064685B0BDF928701C460097FFF781
:100C1000FDFE4FF00002F36942EC40304FF001015D
:100C2000326A41EC402004FB07F787B100240B9B9C
:100C30009D1E35F8023F02225BBAB06A03A9013457
:100C4000ADF80C303EF0BCF9A742F2D1F3694FF099
:100C5000010242EC403005B0F0BD00BF10B44FF4CB
:100C600080740C4B53F8202003EB8003C00082F00B
:100C7000400200F1804003F5805C02F0C00200F504
:100C8000203003F54053CCF8002041601C605DF833
:100C9000044B70470480034030B44FF0000343EC32
:100CA000440043EC400005254FF480740B4BC20018
:100CB00053F8201003EB800081F0400102F18043E3
:100CC00003F5203301F0C00200F5805100F54050DB
:100CD0000A605D60046030BC704700BF0480034060
:100CE0000FB400B583B0049C074801F00FFC3CB181
:100CF00005A92046019101F0D9FA044801F006FC4B
:100D0000012001F0EBFA00BF60F0031070F0031057
:100D100070B58646EFF3108572B6124CD4E8CF6FEB
:100D20000120002EFAD1C4E8460F002EF6D1BFF301
:100D30005F8F4FF0010CC80801F007030CFA03F3B2
:100D40001EF800C01CEA030608D14CEA030C0EF89A
:100D500000C0C4E88F6F85F3108870BD1046FFF7A0
:100D6000BFFF00BF47110120F8B5EFF3108772B63F
:100D70001C4ED6E8CF5F0124002DFAD1C6E8454FBE
:100D8000002DF6D1BFF35F8F9A421BD8012502E0F8
:100D90000132934222D3D40810F804E002F0070C89
:100DA00005FA0CFC1EEA0C0FF2D14EEA0C0E00F80C
:100DB00004E010460023C6E88F3F87F3108898426E
:100DC00007DBF8BD0023C6E88F3F87F310884FF09C
:100DD000FF300029F5D00698FFF782FF4FF0FF3073
:100DE000E8E700BF47110120044A1078431CDBB23A
:100DF000182B28BF10231370704700BF900D0020E0
:100E000010B5054C82B001461F23182200940348F8
:100E1000FFF7AAFF02B010BD74F0031060150120A7
:100E20004FF0E022936843F000539360704700BF97
:100E30000021044B03F12002C3E88F1F01339342CA
:100E4000FAD170473C1101204FF08030044B054926
:100E50001A4604338B421060FAD162B6704700BF65
:100E600000E400E034E400E0012300F01F029340BE
:100E7000400941B1800000F1604000F56140C0F8D8
:100E8000803103607047024A203042F820307047BA
:100E900000E100E00123064A410952F8212000F058
:100EA0001F0003FA00F01040003818BF01207047FF
:100EB00000E100E001224309034900F01F008240E5
:100EC000403341F82320704700E100E0054A10302C
:100ED0009268054B52F82000C01A2F288CBF0020C2
:100EE0000120704700ED00E0940D0020F8B50D469C
:100EF000EFF3108772B6124ED6E8CF2F0123002AE7
:100F0000FAD1C6E8423F002AF6D1BFF35F8F0D4BFE
:100F100000F110049B680C4A53F82430934203D02C
:100F2000994201D001F0B4F8064B9B6843F8245075
:100F3000BFF35F8F0023C6E88F3F87F31088F8BDAB
:100F40004511012000ED00E0110100102DE9F04FE6
:100F500081468B46164683B0EFF3108372B6DFF8F6
:100F6000D0A10093DAE8CF1F01230029FAD1CAE803
:100F7000413F0029F6D1BFF35F8F664B93F90040E4
:100F8000002CC0F2A080644D04EB440705EB8708F9
:100F900098F8061009F110091970604BBF009B68A2
:100FA00053F829006300411B2F292FD95C4988423F
:100FB00040F0A4801C445B4B02372F44043BDB1BF6
:100FC000C3F34A036FEAC3434FF421416FEAD343AB
:100FD00025F8241005EB840463804BF60153A380AD
:100FE000FF2348F00100E671C4F808B0A3714B4B31
:100FF0009B6843F82900BFF35F8F0023CAE88F3F47
:10100000009B83F3108803B0BDE8F08F20F0010E41
:101010009EF80710B1422ED84FF42143EB53414BB9
:10102000B91C2944043B04375B1A2F44AEF1040178
:10103000C91BC1F34A043C49C3F34A030B43214390
:10104000A8F804103949A8F802304AF6AA207346D5
:101050005B1B5B415843000D88F8076088F8060069
:10106000C8F808B048F00100CEF80010BFE7D17909
:10107000B1422ED996469EF906C00CEB4C02BCF14B
:10108000000F05EB8202F2DA4BF601510EF1040279
:10109000A8F10407BF1AC7F34A076FEAC7476FEA08
:1010A000D7478EF8064003EB0408204C05EB880375
:1010B000AEF8047045F82840998083F806C0DE71C8
:1010C000C3F808B093E700F0E3FF124B93F9004038
:1010D00059E7724632F8041F490514D44915023104
:1010E00002EB410101916FF00701C91B019F491BF0
:1010F0003944C1F34A0141F46041C9E7019300F06A
:10110000C7FF019B56E701F5FF1101F5FF511F31A4
:10111000E4E700BFA31A0120940D002000ED00E0D9
:1011200011010010C40D002000E0FFFF01488047BE
:10113000451101202DE9F04F83B0EFF3108A72B60C
:10114000714ED6E8CF2F0123002AFAD1C6E8423FDC
:10115000002AF6D1BFF35F8F6C4B00F110089B683B
:101160006B4A53F82850954245D08D420C4650D0DA
:10117000684FEB1B2F2B3ED801214FEA50194FEA45
:10118000890909F1604909F5614900F01F0301FA75
:1011900003F0D9F80030C9F8800000EA030BBFF370
:1011A0005F8FEFF30581C9B2002934D0884505D09F
:1011B000CDE9001000F06CFFDDE9001025F0010E14
:1011C000DEF808C0644505D189E0D3F808C064455D
:1011D00031D09E469EF9062002EB4203002A07EB1F
:1011E0008303F2DA644561D0BBF1000F20D0C9F867
:1011F0008001C9F80000454B9B6843F82850BFF3B5
:101200005F8F0023C6E88F3F8AF3108803B0BDE8E4
:10121000F08F1546EFE725F0010EDEF808C06445B3
:10122000D8D19EF906407346002C08DA154646E0F0
:10123000C9F88000DFE793F90640002C37DB04EBA8
:10124000440C07EB8C0C9CF80710DCF80820D971D3
:101250009A609CF906206100002A9A713DDBBCF877
:1012600004E05FEA4E5E05D50EF5FF1E0EF5FF5E4B
:101270000EF11F0E6FF0070C0A194FEA6E5E920016
:1012800002EB4E0208323A44ACEB030C6244C2F368
:101290004A026FEAC2426FEAD2429A801E4B214450
:1012A0001A7807EB81011C708A719DE77346D9B9E2
:1012B000FF228EF806204BF60152AEF80420164CA1
:1012C0004AF6AA2294F800C01946C91B49414A436C
:1012D000120D83F806C0227086E7104ADDE79EF9FA
:1012E00006407346002CAADA0D4A0E4CD21A083A70
:1012F000C2F30A316FEA01516FEA115144EA520216
:10130000DA80998070E700BF4511012000ED00E010
:1013100011010010940D0020A31A012001BDFFFF50
:10132000CE0D002000F8FFFF2DE9F041EFF3058618
:10133000F6B2EFF3108E72B6204DD5E8CF2F012311
:10134000002AFAD1C5E8423F002AF6D1BFF35F8FE9
:101350001B4F40F0010CBA684AF6AA2352F82680C7
:10136000184C0246121B524153431B0DE04559B223
:1013700014D02246002392F906C00C328C4512D0BC
:101380000133042BF7D1104B00221C7819708471A3
:10139000C5E88F2F8EF31088BDE8F081BB680B4A3B
:1013A00043F82620EFE703EB430304EB8304FF231A
:1013B000A3714BF60153A380E5E700BF451101205F
:1013C00000ED00E0940D0020A31A0120110100108F
:1013D00010B5074C82B00146052300220094054851
:1013E000FFF7C2FC0028A8BFC0F1330002B010BD57
:1013F00090F00310A71A0120014B0B4403607047C3
:101400003C11012070B5114C114DAC421CD2FF268D
:101410000BE0FFF7E9FC01462046FFF7EDFFA68051
:10142000BFF35F8F0834AC420ED22368002BF0D19B
:10143000FFF7DAFC01462046FFF7DEFF2671BFF317
:101440005F8F0834AC42F0D370BD00BF3C14002065
:101450004414002010B50446FFF7C6FC01462046A0
:10146000FFF7CAFFFF232371BFF35F8F10BD00BFDB
:1014700010B504460120FFF7C3FC034B034423606F
:10148000BFF35F8F10BD00BF3C110120024B0B4426
:101490000360BFF35F8F70473C1101200D4B1A684A
:1014A000EFF3108172B6D2E8CFCF0120BCF1000F6C
:1014B000F9D1C2E84C0FBCF1000FF4D1BFF35F8F3C
:1014C00000221B68C3E88F2F81F3108840BF0020E3
:1014D000002170474C1A01202DE9F04F2DED028BB1
:1014E00085B0EFF30583DBB2103B9A0818BF0122E9
:1014F0004FF0010103F0030018BFAD4DAD4B08BF25
:10150000AD4D00EB820201FA00FB53F8226005F5B5
:1015100041539FEDA58B0190C3F804B0CDF800B006
:101520002FE0B3881C0440F19180B379002B40F088
:10153000DA80B6F90820002AC0F21A81736902EB3A
:10154000420203EBC203D3E90247B7F1FF3F08BFF2
:10155000B4F1FF3F0ED00198AB6A05EB80010A6938
:10156000D21AE31A934204D301232A6A8340134216
:1015700000D10C61284600F02DFBA042B941C0F219
:10158000F780B6F90840009B002CEB63C9DBD6F866
:10159000149004EB440A284609EBCA07D7E902B8BD
:1015A00000F018FB584571EB0801BADBB8F1000FE9
:1015B000C0F2C180D7E90431804A934200F0EA804A
:1015C0007A88B6F9080092B242EA0040984702468B
:1015D0000B4652EA030100F0AE80002B80F2CE8071
:1015E000BBEB020B68EB030839F93A30C7E902B8E4
:1015F000002B96DB716903EB430201EBC202D2E9D7
:101600000270BB4578EB000C4FEA430289DBB4461D
:101610002CF8083F06E003EB430001EBC0005A0042
:10162000D0E90270BB451A4478EB000001EBC20E12
:1016300004DB31F93230F446002BECDA29F83A3089
:10164000ACF80040B3881C043FF56FAF3369EFF38B
:10165000108272B6D3E8CF0F01210028FAD1C3E877
:10166000401F0028F6D1BFF35F8F4FF6FF74B0889C
:101670000023316900B2B480C1E88F3F82F3108843
:101680009842FFF652AF0746A946746906F108086A
:1016900007EB470E04EBCE03D3E90250B6F908304E
:1016A000C446002BA8BFB34605DA0FE034F93A3040
:1016B0009446002B09DB03EB430A04EBCA02D2E990
:1016C0000261B54270EB0101F0DA5E46ACF80070E1
:1016D00034F93E7024F83E30002FD9DAB3794D4604
:1016E000002B3FF426AF0023B371B6F9083006F1A2
:1016F0000808581C3CD01A46776903E08046591CFC
:101700003FF419AF03EB430107EBC100B0F802C08F
:101710001C461CF4004F9E4637F93130EED09442FF
:1017200080ED028B05D0A8F80030328927F83120EF
:1017300034817246E3E739F83A3033813369EFF3A5
:10174000108272B6D3E8CF0F01210028FAD1C3E886
:10175000401F0028F6D1BFF35F8F7388316929F8E5
:101760003A3000237480C1E88F3F82F31088D8E6B6
:1017700040BF05B0BDEC028BBDE8F08F2846CDE937
:10178000022300F027FA029A039B10EB020B43EBB3
:10179000010829E708460B69029198470028CAD03A
:1017A0000299D1E9002314E7FFFFFFFFFFFFFFFFCE
:1017B00000800B40241A012000000B40D9140010B7
:1017C00070B51F4D2C692CB1BDE870400A211D4831
:1017D000FFF712BE1C4E0321304600F0E9F9EE601F
:1017E000FFF702FB0321194B4FF0504618444FF608
:1017F000FF7223460F24297015492861A9603068BB
:101800006969AA806C80687021F813200C3301325A
:10181000C02B92B2F8D108240B4B0E4A0320D5609E
:101820000D491C62FFF762FB01210320FFF71CFB3F
:101830000A4B0A211C640348BDE87040FFF7DCBD79
:10184000DC0D00204C1A012000000B403C1101204F
:10185000FFFF1000241A0120D914001000200B40B3
:1018600000487047DC0D00200146F0B50069EFF339
:10187000108772B6D0E8CF5F0124002DFAD1C0E8FE
:10188000454F002DF6D1BFF35F8FB1F902E04C69EF
:101890000EEB4E0CBEF1000F4FEACC05086904EBCD
:1018A000CC0C3CDB665B4E800026C0E88F6F87F374
:1018B0001088BCF80200CCE902230130C0F30E000E
:1018C000012838BF0120059BACF80200CCF810308D
:1018D000069B40EA0E40CCF814300B69EFF31082FF
:1018E00072B6D3E8CFCF0127BCF1000FF9D1C3E81E
:1018F0004C7FBCF1000FF4D1BFF35F8F8B88635333
:10190000A1F804E00B69C3E88F6F82F3108801220D
:10191000CB68097803F501538A405A60F0BD002373
:10192000C0E88F3F87F310884FF0FF30F0BD00BF55
:101930002DE9F0479DF828900546DDE908679046B7
:101940001C46B9F1000F06D100F04CF9804564EB5C
:101950000101002908DB424623462846CDE90867F5
:10196000BDE8F047FFF780BF4846BDE8F08700BFFD
:1019700003464089B0EB214F37DD58690A1402EB6A
:10198000420210B500EBC2001C69EFF3108C72B676
:10199000D4E8CFEF0122BEF1000FF9D1C4E84E2FF9
:1019A000BEF1000FF4D1BFF35F8F428889B292B2CB
:1019B0008A4207D000221B69C3E88F2F8CF310885E
:1019C000002010BD42F4004242800121002218692B
:1019D0009971C0E88F2F8CF310881C78DA6808465C
:1019E00002F50153A140596010BD0020704700BFAF
:1019F000407870472DE9F041851F41F1FF37A8423B
:101A000071EB070338BF002582B038BF2F4604466C
:101A10000E4600F0E7F8281A67EB010C01287CF16C
:101A2000000C06DA2046314602B0BDE8F04100F075
:101A300015B900F0D7F8854267EB010100290ADBF0
:101A40000021174B2A46009316483B460191FFF7A9
:101A50000BFF0130E6D04FF0000C134A1349536AD4
:101A60009F4204D8906AA842DCD29F42DAD10B6828
:101A7000EFF3108072B6D3E8CF8F5FF0010EB8F1AC
:101A8000000FF8D1C3E848EFB8F1000FF3D1BFF36E
:101A90005F8F0B68C3E88FCF80F3108820BFDEE72D
:101AA0009D140010DC0D002000000B404C1A01209A
:101AB00010B5044600F096F84FF47A734FF0FF3CEF
:101AC0006FF00042E4FB0301BDE81040844572EB77
:101AD00001033CBF60461146FFF78CBF2DE9F04380
:101AE00006460D4683B0EFF30584E4B23CB12D4BBE
:101AF0005A6AAA421CD2002003B0BDE8F0832A4FE4
:101B0000D7F80C9097F80080484600F063F808F189
:101B1000040859F828301B1A301A65EB0101984265
:101B200071F1000110DB20BF1E4B5A6AAA42E2D3BA
:101B300014BF012400249B6AB34234BF204644F002
:101B4000010003B0BDE8F08300F04CF8864265EB7D
:101B50000101002914DB154B3846CDE9003432462B
:101B60002B46FFF781FE011E0ADD0E4B5A6AAA4280
:101B700016D39B6AB34211D30B48FFF7F9FEB6E7C1
:101B8000084B5C6AAC42B6D3641B18BF01249B6A45
:101B9000B34234BF204644F00100ADE7AA42EBD186
:101BA00020BFE9E700000B40DC0D00209D14001071
:101BB00010B4054B054C064AA04214BF1846581CE9
:101BC0005DF8044BFFF7A4B86415012000800B40BA
:101BD000ACF003100346416A0A46986A596A8A4281
:101BE000FAD17047034B596A0A46986A596A91427A
:101BF000FAD1704700000B4010B4174A536A9C4654
:101C0000946A536A6345FAD1001959414FF00002B2
:101C100028BF01220346CAB10F4B596A4B1C08BFAB
:101C20000B4608D04FF0FF310B460B48426A8A4200
:101C3000FCD38A4207D1084A02E0506A884202D1A6
:101C4000906A9842F9D35DF8044B7047024A526A91
:101C50009142EAD8EDE700BF00000B40074A536A03
:101C60009942FCD8994207D1044B02E05A6A91424A
:101C700002D19A6A9042F9D8704700BF00000B4029
:101C8000F8B5044606200D4600F0F8F8C300B3FB93
:101C9000F5F30133DA0908D04FF6FE718A421AD9FA
:101CA00000224FF6FF711B4D01E0402501216162CA
:101CB000A262266BF30715D42346002253F82C1F8B
:101CC000062003F580531A60266300F0D7F88000E1
:101CD000B0FBF5F0F8BDC3F34503114603EB8215E5
:101CE0001A46E4E740F2013204F540531A63636A8E
:101CF000A76A062007EB831700F0C0F8064BBF0267
:101D0000A3FB0030C00A0021B7FBF0F0FFF774FF1F
:101D1000D2E700BFC0FF3F00757B2B8F38B504466C
:101D200006200D4600F0AAF860B3174A17489442FF
:101D300014BF4FF080624FF00062154B15490260EE
:101D40001A608B6832EA0303FBD10F4B4FF48070AB
:101D5000E31AB3FA83F3104A5B0922F81300294609
:101D60002046FFF78DFF234640F20135032153F84B
:101D70002C2F82F0700202F07E0203F580531A606D
:101D80002563A16438BD00BF0080074000200240E9
:101D90000030024000000240581A012000EB400CC5
:101DA0004FEA8C0C0CF1804C2DE9F0410CF5803C95
:101DB000069D9046DCF80420041FAA42E4B238BF16
:101DC000CCF80450012C2AD94FF4006E254E0CF5A6
:101DD0004052C2F800E056F82020AAB9DCF80020F2
:101DE0000CF5805782EA481202F0E002012C3A60BA
:101DF00029D94FF4006246F820300CF500531A60E0
:101E0000CCF80450BDE8F0817769B7FBF2FE0EF123
:101E1000010E0EEB4E0EBEF1030EFCD2DEE70129E1
:101E2000D2D103240CF540521460DCF80820D2070C
:101E3000FBD5DCF800200CF5805782EA481202F04E
:101E4000E002084E3A600122DCF800404C4004F009
:101E500003043C6002FA01F1DCF808200A42FBD0DE
:101E6000C7E700BF6815012010B54FF4803482B079
:101E70000094FFF793FF02B010BD00BF014B53F871
:101E8000200070476815012070B4039D04682D037D
:101E900045EA03451B4B002CB3FBF1F3B2FBF3F611
:101EA0001FDB194A194B904214BF4FF480424FF484
:101EB0000042174C1A6003F580531A60A36832EA97
:101EC0000303FBD1212200F54053043301608660F7
:101ED0001A600268002AFCDA0822C5601A6070BC29
:101EE0007047036803F03F038B42DAD18368C3F382
:101EF0000B03B342D5D1C36803F4EE23AB42D0D178
:101F0000EDE700BF001BB700008005400020024045
:101F10000000024030B44FF080441C4B1C60E0B124
:101F20001B4CA3F54053DC611A4C40F001004440C7
:101F30001C62596298624FF080454FF0E061134B8C
:101F40001548164C1D60846019604AB930BC4FF0CA
:101F50000042A3F580531A607047114BD861EAE73D
:101F60004FF47A7303FB02F2B2F1807F2ABF6FF065
:101F70007F4313461A464FF080410A4C08482360BD
:101F8000094B426030BC1960704700BF00B00D4083
:101F9000D3C007B02D3FF84F00A00140F3FFFF0171
:101FA00000800D40FC19012000A00D40012300EB32
:101FB0004000800000F1804000F584104160036023
:101FC000704700BF002370B5DB8A04460D4600222F
:101FD00042E800F2520254BF1021042144F2522080
:101FE000984786462B462246F446BDE870400A21B3
:101FF0004FF48170604700BF0023DB8A002242E873
:1020000000F2520201D4102118470421184700BFE2
:1020100008B503460846191E02DB1AB140F030002D
:10202000FFF7D0FF40F02000FAE700BF034AD2F8E4
:102030002838002BFBD0BFF35F8F704700000E40A5
:102040000021044B044ABFF35F8F43F8041B934203
:10205000F9D170470C080E402C080E4010B44FF414
:102060008D704FF42A64064A064B07491460D0600D
:1020700019605368002BFCDA5DF8044B704700BF11
:102080000080044000A0044000B0FA00704700BF88
:1020900008B50148FEF724FED0F0031038B5054C12
:1020A000054DAC4204D254F8043B9847AC42FAD3F5
:1020B00038BD00BFC8EF031008F0031010B4074884
:1020C000074C084B084A094904601A608B6832EAD9
:1020D0000303FBD15DF8044B704700BF00200240B2
:1020E0007F3BEFEF00300240F6FFF30300000240B9
:1020F000044BDB6CB3F5004F03D14FF48022024B4D
:10210000DA64704700001150002011504FF0E022B7
:10211000044BD2F8881D0B43C2F8883D10EE300402
:10212000704700BF030330006FF06041044B054A65
:1021300019609368DB4333F06043FAD1704700BF06
:10214000003002400000024010B545F25320FFF776
:1021500053FFBDE8104003460420184710B545F270
:102160005320FFF749FFBDE8104003460120184700
:10217000FEF75EBE70B50D490D4D0E4E6D1AAC10DA
:10218000442C224628BF4422304692003CF0AEFC4C
:10219000B5F5867F07D82B1F074A33440134442CFA
:1021A00043F8042FFAD1054B9E6070BD000000106B
:1021B00010010010000000201101001000ED00E0EF
:1021C000002370B52B4C82B0C4F88430FFF746FF73
:1021D0000122294BDA63636C012BFCD10321264ACF
:1021E000244B11639C6B012CFCD102260525214652
:1021F0000523224A22480096FFF746FE21462B4639
:10220000204A21480095FFF73FFE00220420314676
:102210001E4BFFF729FE2146284600221C4BFFF7E4
:1022200023FE0022082011461A4BFFF71DFE002254
:1022300009201146174BFFF717FE00220620114612
:10224000134BFFF711FE0022114B07201146FFF739
:102250000BFE0420FFF712FE00240F4BA3FB0035FA
:10226000AD0CE0B229460134FFF7A0FE062CF8D1F0
:1022700002B070BD0000014000300140002F6859DD
:1022800000000540008C864700800540001BB70019
:1022900080D1F008006CDC0283DE1B433CF07AB98D
:1022A000FFF7FCBF00B9704700F020B910B5094B2B
:1022B00084B01C684CB1034600914FF0FF3203A973
:1022C0000548A047012004B010BD00F01FF92046CA
:1022D00004B010BDF8190120A522001000BEFDE7D2
:1022E000074A0346106838B1064903448B428CBF45
:1022F0004FF0FF3013607047034908461160F3E761
:10230000F415012000000820A81A012008B5FFF7E5
:10231000E5FF00BF38B5064C064DFFF7BFFEAC42E7
:1023200004D254F8043B9847AC42FAD338BD00BFFE
:1023300008F0031018F00310036808461146184708
:10234000437D2DE9F04780460F461646002B43D0CB
:10235000002A32DD00244D1EA14606E06A780A2AD2
:102360002DD0B44205F1010514D0214601340029D5
:10237000F4D13B780A2BF4D198F81430002BF0D12B
:1023800002211948D8F800309847B442A14605F117
:102390000105EAD14E4506DDD8F80030A6EB09016B
:1023A00007EB09009847374417F8013CA3F10D03E8
:1023B000B3FA83F35B0988F81430BDE8F0872A7814
:1023C0000D2ACED08945DBDAD8F80030A1EB09011F
:1023D00007EB09009847D3E73846D8F80030114694
:1023E000BDE8F047184700BFD4FC03102DE9F04FBB
:1023F00083B00D4691461C460746FFF7F3FB4FF0AE
:10240000FF3C6FF00046254A821841F100039445D5
:1024100076EB03013CBF6246334621483CF0C8FDE1
:102420006B1C82462DD04CB3DFF880801D4B1C689E
:10243000ECB14FF00A0B1C4E01E02469BCB12368DB
:10244000002BFAD033680BB1A342F6D12A463946A5
:102450002046C047B9F1000FEFD0204601220DF110
:1024600007018DF807B0C0472469002CE7D1BAF105
:10247000000F0BD1284603B0BDE8F08FDFF83080A5
:10248000D4E738463CF0A8FB0546CCE704483CF0CE
:1024900083FD284603B0BDE8F08F00BF40420F0027
:1024A0003C140020E4150120F01501204123001008
:1024B00039230010084A136823B90AE003F1100217
:1024C0001B6933B18342F9D129B9186910601961C8
:1024D000704701B110607047E415012008B500F0A5
:1024E000FDF800F033FB012008BD00BF012310B54B
:1024F000044682B0002219460DF107008DF807400E
:10250000FFF774FF204602B010BD00BF38B5044687
:102510003CF062FB012305461A4620462946FFF798
:1025200065FF054B1C682CB1636803B198472469AB
:10253000002CF9D1284638BDE4150120B1F1000C7A
:102540001DDD0F4A0F4B126830B5D31AB3FA83F36F
:102550000D240D4D5B09411E35F913E08C4411F833
:10256000010F864506D093699B06FCD46145106037
:10257000F5D130BD93699D06FCD41460F3E7704734
:102580005C1A012000800740581A0120224BB1F14B
:10259000000C10B41C682EDD034600201F4A591E93
:1025A00012689369DB0617D401309369DB06FCD40B
:1025B0001368844501F8013FF3D14CB15021134613
:1025C000916353F8342F02F0380203F580531A60F8
:1025D00060465DF8044B70474CB15021134691633F
:1025E00053F8342F02F0380203F580531A6078B1A3
:1025F0005DF8044B70475CB1084B50211A681346D4
:10260000916353F8342F02F0380203F580531A60B7
:102610006FF00200DDE700BF501501205C1A0120B9
:10262000054B1B6833B10021044A05481268006855
:1026300091631847704700BF501501205C1A0120B4
:1026400058150120024B1A6893691B07FCD4704788
:102650005C1A0120F8B51C4F1C4D3A681C4EAA426A
:1026600014BF212522250446D6F800C018B1BCF1BC
:10267000000F10D0F8BDBCF1000FFBD001469063F5
:102680002846FEF7F1FB28461249FEF753FD124B90
:1026900034601C60F8BD0B460F4A0E493060284676
:1026A0001360FEF723FC01212846FEF7DDFB3A68A4
:1026B00050211346916353F8342F02F0380203F58A
:1026C00080531A60F8BD00BF5C1A012000800740EB
:1026D00050150120212600105815012010B50E4973
:1026E0000E4C0F480F4A104B007821600020022149
:1026F00012781B78FEF7B2FA02210120FEF7AEFA3B
:102700004FF4E1312068FFF709FBBDE810400121DB
:102710000648FFF7CFBE00BF000007405C1A01204B
:10272000382305103423051030230510F40D002044
:10273000704700BF0022014B1A707047A41A012095
:102740004B79FF2B0BD1887948B9CB79012B07D175
:10275000082A05D9034B8A7809201A70704700208F
:10276000704700BFA41A012001207047012901D041
:102770000120704708B5104B91881B78994201D011
:10278000002008BD5378012B08D0022BF8D100217E
:1027900064220846FFF7BEFB012008BD5188CB0527
:1027A00048BF480AC1F3402258BF4FF0FF3001F044
:1027B0007F01FFF72DFC00BFA41A012000487047DD
:1027C000BCFD0310012907D15378012B02D1938856
:1027D000072B03D000207047012070471146A62325
:1027E000014A01F0D7B900BF14FD031003460122CE
:1027F00001481A70704700BFF4FC031008B50B685D
:10280000B3F5966F00D008BD00224FF0FF3011469F
:10281000FFF7FEFB024A034B10601960704700BFD0
:10282000541501205C150120184B70B51A68002A58
:1028300028D0EFF3108172B6D2E8CF4F0120002CE0
:10284000FAD1C2E8440F002CF6D1BFF35F8F00220B
:102850000F4C186859602270C0E88F2F81F31088E0
:10286000002400250B4E3078FEF714FB20B900241D
:1028700000252046294670BD3078FEF71BFB204618
:10288000294670BD4FF47A740025EBE71C1A01202D
:10289000A61A0120A51A0120014B1878FEF70ABBE1
:1028A000A51A012038B5044600200D4601F058FA5B
:1028B000A8B3002001F06AFA88B3FFF793F94FF04C
:1028C000FF3E6FF0004C174A821841F10003964515
:1028D0007CEB03013CBF7246634613483CF068FB47
:1028E000E8B1002001F03CFA58B900214FF0FF3068
:1028F00000F080FC6FF002040B483CF04DFB2046DA
:1029000038BD002001F042FA0028EED021462A46C8
:10291000002001F045FA04460028EDD1EAE76FF007
:102920000204ECE740420F00501A012008B5FFF7FF
:1029300059F94FF0FF3E6FF0004C0F4A821841F1F9
:10294000000396457CEB03013CBF724663460B488F
:102950003CF02EFB70B14FF0FF30002100F04AFC3C
:10296000002001F035FA0028F5D1BDE80840034801
:102970003CF012BB08BD00BF40420F00501A0120BE
:102980002DE9F84380460F46FFF72CF94FF0FF354D
:102990006FF00044334A821841F10003954274EB12
:1029A00003013CBF2A4623462F483CF001FB08B9EF
:1029B000BDE8F883002001F0D3F9002847D0002FAC
:1029C00040DD0025DFF8A890284E13E022460020C5
:1029D00001F044FA002104464FF0FF3000F00AFCF9
:1029E000002001F0F5F9FFF7FDF8C9E900012544E1
:1029F000AF4227DD002001F051FA7C1B8442A8BFC2
:102A0000044608EB0501002CE0D121464FF0FF30D1
:102A100000F0F0FB204601F0DBF9204601F0A0F9C0
:102A200080B1204601F03AFA0028E1D1FFF7DAF848
:102A3000D9F80030D9F804209B1942F100028342F2
:102A40008A41D5D20848BDE8F8433CF0A5BA002039
:102A50000021074BC3E90001BDE8F84302483CF000
:102A60009BBA00BF40420F00501A012020A107006E
:102A7000C815002030B5002185B02E483CF09CFAE6
:102A8000F0B92D4B1A68CAB1EFF3108172B6D2E8D3
:102A9000CF5F0124002DFAD1C2E8454F002DF6D1B9
:102AA000BFF35F8F254C1D6822785960D3B2012295
:102AB0002270C5E88F0F81F31088CBB105B030BD0F
:102AC00000214FF0FF3000F095FB002001F05EF98F
:102AD000044618483CF060FA002CEFD0184B1B68F5
:102AE000002BEBD0174A106805B0BDE830401847FE
:102AF000FEF7B6FE0446FFF775F84FF0FF3C6FF0A7
:102B0000004510F57A7241F10003944575EB03011D
:102B100038BF2B464FF000014FF0010520460A4C0C
:102B200038BF6246CDE901150094FEF701FF05B0FC
:102B300030BD00BF501A01201C1A0120A61A012026
:102B4000541501205C150120292800104FF0504336
:102B500030B585B01C68FEF783FEFEF749FFA04242
:102B600002D0002005B030BD00212A4B08461B785A
:102B700001F052FC28480368002B47D00120FEF7E3
:102B800027FC0346254C2649C0B22370FEF7AEF958
:102B900020780121FEF768F90E20FEF797F940BB77
:102BA000204B0125C3E90000FEF75AFE0446FFF75B
:102BB00019F84FF0FF3E6FF0004C10F57A7241F1BA
:102BC000000396457CEB03014FF000012046164CB4
:102BD0003CBF72466346CDE901150094FEF7A8FE9E
:102BE0000028BEDB01211148FFF764FC012005B07D
:102BF00030BD0120FEF704F901460A48FEF746FC05
:102C000000220E200A49FEF7A1F9EBE7FEF722FCAD
:102C1000B4E700BF3C230510501A0120A51A01207B
:102C2000752A00101C1A0120292800100C0E002003
:102C3000992800100048704758FE0310004870475C
:102C400004FE031038B5184B04461A780AB344B989
:102C500040F209424FF44173144D6A8013482B80AF
:102C600038BD052C1DD8124B104D53F824102846A2
:102C70000023013903E0132B20F8022F0ED011F8A6
:102C8000012F0133DBB2002AF5D15B0043F440731E
:102C9000E4E71121184600F027F8D8E74FF44A730B
:102CA000DCE7002038BD00BF601A0120901501202C
:102CB000ECFD031000B545F247308BB0FFF79CF9EF
:102CC00001220346092101A89847064A05AB03A83B
:102CD00013F8011D834202F8011FF9D10BB05DF812
:102CE00004FB00BF431A0120012924D010B501F1D3
:102CF000FF3E0021114C00F1FF3CCA434B08E35C4E
:102D000002F001029200134103F00F021346092A58
:102D100001F10101D4BF3033373371450CF8013F65
:102D200005D01029E9D100231030037010BD002315
:102D30000844037010BD002303707047441A01203B
:102D4000F0B4002600F07F041B4D630003EBD013AA
:102D500005EB43139870C009DA7680F001021983FD
:102D6000DE705A70E300A8B9144A043305EB8411ED
:102D70009F188F609E503CB90023114A05EB40100C
:102D8000C2604360F0BC70470E4BE40023444B60CC
:102D9000F0BC7047094A05EB841113448B6242F87A
:102DA0003460002CE8D0E40004F1A04404F5801461
:102DB0004C62F0BC704700BFF81501208000105035
:102DC000000110500400105070B500F0F3F80C230F
:102DD0004026194CFF22A3670E201849FEF7B6F8CB
:102DE0003246002116483BF095FC01250023802146
:102DF0001348144A41844570068306878260436005
:102E0000136042F8043C80F8213080F83B30436284
:102E10000D4B4FF00056C360C362803B83623CF0B1
:102E2000A7F84FF480320949094B25642846E66427
:102E3000C4F89010DA6470BD0000115075030020D2
:102E4000F8150120840010500001105010D001002E
:102E50000020115001210E20FEF706B80022024882
:102E6000114600F0C7B800BF18160120044B1970B6
:102E700021B14FF40032034BC3F89020704700BFDC
:102E8000A11A0120002011500B785B0602D14B786B
:102E9000052B00D070474B88014ADBB213607047A6
:102EA00000001150CA7802F00302012A36D0F8B5AA
:102EB0008C78898804F07F052046C1F30A01FFF76A
:102EC0003FFF0DB90120F8BD174E6D0005EBD4137F
:102ED00006EB43131A8B1549DB7E3F32022B22F09F
:102EE0003F020B6808BF52001A44E4090A60104907
:102EF0002F1906EB47178A42FB6011D8254406EBD1
:102F00004515E97E83F0A04383F480136A6843EAA1
:102F1000816343F0004301201360F8BD0020704737
:102F2000FFF7B6F8FB68E9E7F8150120001A012061
:102F3000FF0F10503CF01CB88C4608B511460748EE
:102F40001A460CF07F034FEADC1C0CEB430C00EB41
:102F50004C1000F04FF8012008BD00BFF81501200B
:102F600011F07F0205D100290CBF02200120064B81
:102F70009866C909054B01EB420003EB40104FF482
:102F8000006200213CF010B800201150F81501201B
:102F900011F07F0300D17047002205485B0003EB6E
:102FA000D11300EB43106FF40061C2703BF0FCBF23
:102FB000F81501204FF0805209480A4908B50A4B1C
:102FC00002600A609968C94311F08051FAD14FF448
:102FD000805206483BF09EFB0922054B5A6708BD0C
:102FE000002002400030024000000240000010506B
:102FF0000000115000234FF0010C10B580F81AC0EA
:103000008282C382016104463BF0CAFF20B14FF4C3
:103010000032074BC3F8902020463BF0B5FF10B1BB
:103020000123237710BD2046BDE810403BF0A8BF28
:10303000002011502DE9F04100241D4E0546234685
:103040003278DFF878801B4F0DE03B6813EB4413B8
:1030500024D0DB682846984732780134E4B2511C0A
:10306000A142234606DBA242A3EB0203EDD808EB04
:103070004313EEE7542200210F483BF04BFB4FF087
:10308000FF330D482022041D4360C4E90133E3608F
:10309000FF21BDE8F04114303BF03CBB4FF0E02392
:1030A000D3F8F03DDB0700D500BEBDE8F08100BFDE
:1030B000A01A0120980F0120681101206CFE031056
:1030C000704700BF704700BF002070470020704766
:1030D000704700BF704700BF704700BF704700BF18
:1030E000024B5878003818BF012070476811012042
:1030F000024B1878C0F38000704700BF68110120B0
:103100002DE9F047DFF8E4A09AF80030FF2B56D104
:103110000E4600293ED000215422074629483BF0A4
:10312000F9FA0022284C294B20461A70FEF792F932
:10313000274B28481C60284CFEF79AF9204601F0DE
:1031400065FD264A264B146023B12648FFF74EFB47
:10315000254B18600024234D23462A78DFF89090F1
:10316000DFF884800EE0D8F8003013EB441311D060
:103170005B687BB198472A780134E4B2511CA142C4
:10318000234611DBA242EED89B1A09EB43135B687E
:10319000002BEFD14FF0E023D3F8F03DDB0700D553
:1031A00000BE0020BDE8F087314638468AF800703E
:1031B000FFF70AFE0028EDD03846FFF74BFE01204E
:1031C000BDE8F0876811012060110120A21A0120DA
:1031D000BC110120380E0020240E0020C011012057
:1031E000ED270010A01A0120980F0120400E0020AA
:1031F0006CFE03102DE9F04FDFF8C8928BB099F800
:103200000030FF2B00F0F180A84CA94DDFF8B0A2F0
:10321000DFF8B4B226687369EFF3108272B6D3E8B0
:10322000CF0F01210028FAD1C3E8401F0028F6D1B2
:10323000BFF35F8FB261304607A901F091FB002315
:103240007269C2E88F3FB36983F31088002800F0E9
:10325000CC809DF81D30013B072B00F27D83DFE819
:1032600003F0A7B1959D8E350A04089B002BD1D0A1
:1032700009989847CEE79DF8201001F07F0605EBEE
:10328000460000EBD11090F8343023F0010380F8B1
:10329000343090F8343023F0040380F83430002EBA
:1032A00000F0A680037D9AF80020934280F093807E
:1032B000804A126812EB431300F090809E699DF8DB
:1032C0002120099B9DF81C00B047A3E79BF8003024
:1032D000002B00F083809BF80030013BDBB28BF8C1
:1032E00000309BF8003003F0FF00002B92D1704FAC
:1032F0009DF81C803B7843F001033B7097F8343015
:1033000060F3000387F8343097F8343060F38203B9
:1033100087F8343097F8353060F3000387F835309C
:1033200097F8353060F3820387F8353000F06EFC93
:103330009DF8203003F06002602A6CD0402A7CD0D7
:1033400003F01F03012B00F0C180022B00F08180ED
:10335000002B60D1202A00F0E981002A5BD19DF882
:103360002130092B57D8DFE813F0B001A201560035
:10337000C101560095016B0156006001F4002B78E5
:10338000D9077FF547AFFFF7A9FE43E7EB78DA07E8
:103390007FF540AF0898FFF795FE3BE72B78D807FD
:1033A0007FF538AF2878C0F3C000FFF795FE31E70E
:1033B0009DF81C00FFF73EFE00F01EFC9DF820303B
:1033C000AB7027E79DF81C00FFF734FE00F014FCFB
:1033D000FFF780FE1EE7501C984211DA4FF0E02301
:1033E000D3F8F03DDC0700D500BE0BB0BDE8F08F90
:1033F000099B9DF821209DF81C0000F01BFC09E7AB
:103400009B1A2D4A02EB431358E7FFF717FC0246BD
:10341000002840F082814FF0E023D3F8F03DDE0732
:1034200000D500BE9DF81C000021FFF799FD80210A
:103430009DF81C00FFF794FDECE6204800F0E6FB49
:103440000121404608AAFFF7BDF900287FF4E2AE4B
:10345000E8E79DF8241011F0700FDCD101F07F0631
:1034600007EB4600164B00EBD1101B78007D760071
:10347000019698424FEAD116009659D35E1C8642B7
:10348000C0F26681C01A0C4B03EB4016002A00F014
:103490006381706900F0BAFB01214046736908AA94
:1034A000984700287FF4B6AEBCE700BFC0110120EA
:1034B00068110120980F01206CFE0310C527001031
:1034C000A01A0120400E0020A21A01209DF82430ED
:1034D0000F2BA7D8AE4A3B441B791278934232D3C4
:1034E000511C99429EDBAB4E9B1A06EB431670694A
:1034F00000F08CFB01214046736908AA9847002818
:103500007FF488AE9DF8203013F060068AD19DF8D4
:1035100021300A3B012B85D800F078FB9DF8213043
:103520000A2B00F0F281404608A900F019FB71E671
:10353000994B1B6803EB4016002A00F00D81002E0A
:103540003FF470AFA5E7944A166816EB4316CED148
:1035500068E77B789DF822609E4200F04F817B787F
:10356000002B40F0BE817E70002E00F04581701E61
:10357000C0B2FFF763FB0346002800F05F8142788A
:10358000022A40F05B81C17903F10906C1F34012C0
:103590001201C1F3801142EA41123146387820F01D
:1035A000300002433A705A88CDF80C809A18019284
:1035B000019B8B4240F2A4814A780B2A00F0AF8134
:1035C0000123042A40F03A810026019A0096521AFB
:1035D00092B202926E4A049312781DE06E4B1B6801
:1035E00013EB461800F02A81029AD8F8103003989D
:1035F0000591984708280246059906F1010303D969
:103600000298904280F0FF80DEB2614B00961A78FB
:10361000531C9E4200F31281009BB242A3EB0202B4
:10362000DCD85C4B03EB4218DEE77B7840468DF834
:103630001A300DF11A02012308A900F0ABFAE9E5EE
:10364000BDF82200030A013B020AC0B20E2B3FF66E
:10365000E9AE01A151F823F06D38001009370010D0
:10366000A938001025340010253400108B380010C4
:1036700009370010253400102534001025340010BF
:103680002534001025340010253400102534001096
:103690005F38001008A800F0BFFA40469DF82210DD
:1036A000FFF7DCFB3B7843F002033B70B2E5BDF86B
:1036B0002230012B7FF4B6AE3B78404623F008035E
:1036C00008A93B7000F04CFAA4E540463B789A0804
:1036D00002F00202C3F340131343ADF81A300DF1A8
:1036E0001A02022308A900F055FA93E5BDF822302A
:1036F000012B7FF497AE3B78404643F0080308A9BE
:103700003B7000F02DFA85E5022A3FF47EAEFFF70C
:10371000DDFC024600283FF485AE4046538808A9E8
:1037200000F038FA00287FF475AD7BE69DF8243070
:103730000F2B3FF677AE164A3B441B791278934223
:103740001DD2154A166816EB43167FF4A2AE69E641
:10375000002A7FF467AE00269DF8212002F0FD03C9
:10376000012B1BD0002A7FF456AE019B009A3B44EC
:10377000134493F834304046C3F34003ADE7511C83
:103780009942FFF64FAE034E9B1A06EB431680E6B6
:10379000A01A01206CFE0310980F0120BDF8223002
:1037A000B3B9012A99F8000000F08680FFF7D8FB32
:1037B000019B009A3B44134493F8342042F00202E8
:1037C00083F8342093F8342042F0010283F8342047
:1037D000002E3FF41FAD706900F018FA73690121E3
:1037E00008AA40469847002000F010FA97F83530B4
:1037F000DF073FF50FAD96E6FFF76CFC404608A9E2
:1038000000F0AEF906E5049B012B00F09E80002B32
:1038100000F08A80002091F8028005E08CF80460B6
:103820005FFA80FC9C457FD208EB000C57FA8CFCB9
:103830009CF804E00130BEF1FF0FEFD04FF0E02321
:10384000D3F8F03DDA0700D500BE4FF0E023D3F8FF
:10385000F03DDB0700D500BE00237B70E2E5FEF7FC
:10386000ADFF024600287FF458AFDBE5FFF7E2F931
:10387000024600283FF4CFAD4046122308A900F0CD
:1038800089F900287FF4C6ACCCE5FFF71DFC0246A1
:1038900000283FF4C7AD4046137808A900F07AF934
:1038A00000287FF4B7ACBDE5BDF82410FFF7CAF9D6
:1038B00002460028EFD1B5E50293FFF769FB019AB4
:1038C000009B3A441A4492F83410029B63F341017E
:1038D00082F8341092F8341063F3000182F8341047
:1038E00076E700214046FFF7C1FA4046FFF722FB8A
:1038F000BB7840460093FFF79DFB009BBB7032E610
:10390000DDF80C80FFF7E4FB78E74046012308A9C7
:103910000DF11A028DF81A6000F03CF97AE40A7889
:10392000CB7811444A784CE6334610480492029111
:1039300000F01AFE0E4B049A02991B781144009A6B
:1039400001339342BFF634AE78E7D8F810C0094887
:10395000844508BF02235DE74FF0E023D3F8F03D34
:10396000DB077FF557AC00BE54E400BF7C1101209B
:10397000A01A0120913F001038B58B7813F0700F1A
:1039800008D04FF0E023D3F8F03DDB0700D500BEB0
:10399000002038BD074A084B0C46084691781D7830
:1039A00000F0B2FD0028ECD021462846BDE83840A2
:1039B000FFF778BA68110120400E00202DE9F0478A
:1039C000DDE908895AB307460C461E4615464FF0F6
:1039D000000A16E0E17801F00301B14214D121465A
:1039E0003846FFF7C9FF78B1A3780AF1010ADA096E
:1039F00014BF89F8003088F800302378AA451C44A9
:103A00000DD06378052BE5D04FF0E023D3F8F03DDF
:103A1000DB0702D40020BDE8F08700BEFAE70120F2
:103A2000BDE8F0870B46064A06481168DA093432C9
:103A300003F07F0302EB4303184400F01FBD00BFF7
:103A4000BC110120681101200B46064A0648116886
:103A5000DA09343203F07F0302EB4303184400F029
:103A600037BD00BFBC1101206811012010B51948F5
:103A700001F07F0C00EB4C0000EBD11090F834C04B
:103A80001CF0010F08D04FF0E023D3F8F03DDA0727
:103A900000D500BE002010BD00F1300494F804C031
:103AA0000D484CF0010C007884F804C0FFF744FA8C
:103AB0000028F0D14FF0E021227960F3000222715A
:103AC000227960F382022271D1F8F03DDB07E1D563
:103AD00000BEDFE768110120400E00201E4910B52E
:103AE000B1F80CC0CA8991F900E0ACEB02039BB2BB
:103AF000402B28BF4023BEF1000F044682B00ADBF2
:103B000094454FF000011FD02046144A02B0BDE892
:103B10001040FFF7ABBF94450ED01A4689680F4896
:103B200001933AF0E3FF802120460C4A019B02B04A
:103B3000BDE81040FFF79ABF80210022204602B066
:103B4000BDE81040FFF792BF0A46204602B0BDE82C
:103B50001040FFF78BBF00BF28110120E8100120A3
:103B600030B50B4C8C46A6460546086849680023CC
:103B7000AEE803009CF800102846C943C4E90233AC
:103B8000BDE830401A4601F08001FFF76FBF00BF6B
:103B90002811012070B5174C0025A6468C46064614
:103BA00008684968E581AEE80300A260BCF80650E9
:103BB000AB4228BF2B46A3813DB103B18AB1304649
:103BC000FFF78CFF68B1012070BD9CF800102B46F8
:103BD000C9432A46304601F08001FFF747FF00281D
:103BE000F1D14FF0E023D3F8F03DDB0700D500BE64
:103BF000002070BD281101200022034BC3E90022E0
:103C0000C3E902221A61704728110120014B186193
:103C1000704700BF2811012030B40246044C002533
:103C2000234600685168C4E9025530BC03C370479D
:103C30002811012070B52B4CC90922780646B1EB3A
:103C4000D21F1D4614D043B14FF0E023D3F8F03D0E
:103C5000DB0700D500BE002070BD2146FFF714F938
:103C600023691BB12246032130469847012070BDCD
:103C700094F90030002B06DBA0680028EBD02A4620
:103C800019493AF033FFA268E3892A442B44A26021
:103C9000E2889BB29A42E38107D03F2D05D9304696
:103CA000FFF71CFF0028E1D1CEE7236923B10221F1
:103CB00030460C4A984760B121780023C94330460A
:103CC0001A4601F08001FFF7D1FE0028BCD0012088
:103CD000CDE701463046FFF743F980213046FFF734
:103CE0003FF9C3E728110120E81001202DE9F04138
:103CF0000446FFF7F5F908B9BDE8F081FFF7F8F9D8
:103D000005460028F8D1C82304FB03F3124EF71828
:103D1000F9780029F0D010331E44304600F00EFE32
:103D20003F28E9D92846F978FFF77CFE0028E3D040
:103D3000304600F003FE3F28F97808D9074A2846A4
:103D400002EBC4124023BDE8F041FFF78FBE2846C6
:103D5000BDE8F041FFF778BE201001209C0F012044
:103D600010B50446FFF7BCF908B9002010BDFFF7F5
:103D7000BFF90028F9D1C822034B02FB043318799C
:103D800000F0010010BD00BF20100120C82208B5BE
:103D9000024B02FB003000F0B7FD08BD30100120DF
:103DA00010B54FF6FF7E72454FF0C80C28BF724623
:103DB000064B044692B20CFB003000F0F9FD0346BE
:103DC00020461C46FFF792FF204610BD3010012010
:103DD0002DE9F0410446FFF783F910B90020BDE852
:103DE000F081FFF785F905460028F7D1C82604FBC6
:103DF00006F6DFF8648006F124074744384600F0F1
:103E000083FD0028EAD0B044284698F80210FFF756
:103E100009FE0028E2D00F4E384606EBC4163146A4
:103E2000402200F0C5FD98F80210044668B1034630
:103E300032462846FFF71AFE50B94FF0E023D3F878
:103E4000F03DDB07CAD500BEC8E7FFF7FDFDC5E7BB
:103E50002046C4E7DC0F01202010012038B54FF6C2
:103E6000FF75C823AA4228BF2A460B4C92B203FB17
:103E700000440546204600F01BFE034620461C4633
:103E800000F042FD3F2801D8204638BD2846FFF704
:103E90009FFF204638BD00BF44100120C82208B54E
:103EA000024B02FB003000F049FD08BD4410012028
:103EB000F0B5002483B0C822002117483AF02AFC4C
:103EC000FF234FF4E1310822144804701248009493
:103ED000074643718160827300F13801012340225B
:103EE000103000F0E1FC0123402207F1780100933B
:103EF00007F1B80607F1240000F0D6FC07F1C00571
:103F00003046FDF7A7FA2846FDF7A4FAC7E90746A9
:103F1000C7E90C5403B0F0BD201001201C10012093
:103F2000074A116A106B11B100230121D36110B14E
:103F30000023C2E90C3309B100231362012070474A
:103F400020100120002210B50E4C0F48237802608B
:103F50000271DA0707D59B070BD5BDE81040012198
:103F60000A4800F06FBE103000F050FE23789B0727
:103F7000F3D4064800F04AFEBDE810400121034892
:103F800000F060BE1C100120201001204410012010
:103F9000F0B54B7983B0022B02D18B79022B03D081
:103FA0000025284603B0F0BD254FBB783BB14FF04C
:103FB000E023D3F8F03DDB07F2D500BEF0E78B78C5
:103FC00006463B700B780925CC186178242907D068
:103FD00014E023781C4461782B4424299DB20DD130
:103FE0009542F6D96378042B02D163790A2B14D059
:103FF0000020FFF77BFE284603B0F0BD0529F1D174
:1040000021463046FFF7B8FC0028D0D0A3787B705B
:1040100023781D44ADB21C44E4E70A4B2778019392
:1040200001330093022330461A46E119FFF7C6FC1C
:104030000028BCD00E3517FA85F5ADB2D8E700BF21
:104040002010012022100120137803F06003202BA0
:1040500008D170B5264C938894F800C09C4503D0D5
:10406000002070BD002070475378203B032BF7D809
:10407000DFE803F027230D0201292ED003291ED1EA
:104080001C4BE3B100205188AFF3008017E00129F9
:1040900023D0032913D15588174805F0010686F06F
:1040A0000101257100F0CEFD144B43B131460020D3
:1040B000C5F34002AFF3008001E0012911D00120D7
:1040C00070BD01290DD00329F9D10D4B002BF6D07D
:1040D00000200C49FEF792FBF1E71146FFF740FD87
:1040E000EDE711460723074AFFF754FDE7E700BF56
:1040F00020100120000000004410012000000000FA
:10410000FD270010281001202DE9F843354E0C46FC
:10411000F27807468A421D463DD0B3788B4212D0D2
:104120004FF0E023D3F8F03DDB0732D40020BDE8A8
:10413000F8832D4B23B12D4800F0F6FB00284DD01D
:104140000020FFF7D3FDB378A34201D00120EEE7B2
:10415000274B13B10020AFF300800020FFF738FE9B
:104160000028F3D1234800F0CFFB0028EED1002D2A
:10417000ECD015F03F05E9D13846B178FFF752FC95
:104180000028E3D02B462A463846B178FFF76EFC6C
:10419000DCE700BECAE79AB2174906F1100000F04A
:1041A00087FC164B002BC4D07379FF2BC1D0002D98
:1041B000BFD0DFF8448008EB050902E0C845B8D05D
:1041C000737918F8012B9A42F8D1084800F0ACFB3B
:1041D0000028F3D17179AFF30080EFE7AFF30080EF
:1041E000AEE700BF201001200000000030100120C9
:1041F00000000000441001209C0F0120000000007E
:10420000F0B54FF4137285B0002112483AF082FAEB
:10421000402600234FF480750E4F0F4C07F5A67211
:104220001946CDE90246009201951A4607F59470A9
:1042300000F0C6F90023384607F128013444009104
:1042400001221946CDE902460195043000F0B8F983
:1042500005B0F0BD041301208412012008B5054803
:1042600000F0DAF9034BA3F5927000F0D5F90120C4
:1042700008BD00BF2C14012038B50025064C04F5FC
:104280009870257000F0C2FC04F10C0000F0BEFC38
:1042900084F82951657138BD041301202DE9F843D4
:1042A0004B79FF2B51D1354E96F82931002B4CD14B
:1042B00096F80580B8F1000F47D18B780C783370F1
:1042C0000B790F460C44ABB38146A51803E0A54219
:1042D00030D923781C446378052BF8D1AC4229D21D
:1042E00021464846FFF748FB40B3A378DB092FD1AE
:1042F000234800F08BFCA37896F8282186F8293112
:10430000A3884846C3F30A03A3F50073B3FA83F303
:104310005B0963F341021B4986F8282100F0EAF9A2
:1043200060B123783A7908F101081C445FFA88F3F8
:104330009A42D0D8E11B88B2BDE8F8834FF0E02361
:10434000D3F8F03DDB0700D500BE0020BDE8F883C0
:104350000D4800F05BFCA37832797371A3880B4998
:10436000C3F30A03A3F50073B3FA83F35B0963F3A2
:1043700041020020327100F085F9D2E704130120D8
:10438000341401202C1401201013012008130120E3
:1043900070B51B4C064694F829C11D468C4511D0BA
:1043A00063798B4201D0002070BD164B1BB10020F9
:1043B000A9B2AFF300803046134900F063F9C8B1E9
:1043C000012070BDB4F8343163B9104B23B1002023
:1043D0000F49AAB2AFF3008030460E4900F08AF9C7
:1043E0000120EEE7D4F82C11AAB204F5987000F081
:1043F0005FFBEAE72A463046034900F00FF9DFE7A2
:104400000413012000000000081301200000000038
:10441000841201202C14012010B582B0C9B10128EA
:104420000CD80B7853B1144C012B235402D001202B
:1044300002B010BDFEF764FE0028F8D14FF0E02373
:10444000D3F8F03DDB0702D4002002B010BD00BE5F
:10445000FAE70124084601A9ADF80440FEF750FE32
:1044600038B94FF0E023D3F8F03DDA07EDD500BEC0
:10447000EBE7014B1C70E8E75C110120F8B503780D
:1044800013F001041AD1037805465A07C3F38007D5
:1044900001D52046F8BD0E464FF0FF3130463AF0C8
:1044A0006BFD2B7813F001040BD12B785B0709D43B
:1044B0002B78012443F004032B7003E000242046F2
:1044C000F8BD3C4630463AF067FD2046F8BD00BFD7
:1044D00070B50C4605464FF0FF3120463AF04CFDD2
:1044E0002B78C3F380065B0708D52B7813F0010304
:1044F00011BF00262A7863F382022A7020463AF020
:104500004BFD304670BD00BFC378828803F00300C6
:104510000228C2F30A0215D003280AD001281CD1B0
:10452000022940F2FF3308BF4FF4806393420DD35A
:104530007047022914BF40234FF48063934205D390
:104540000120704702290AD0402AF9D94FF0E02310
:10455000D3F8F03DDB0700D500BE00207047B2F570
:10456000007FEDD0F2E700BF0A44914205D37047C7
:1045700091F800C061448A4220D991F801C0BCF191
:10458000050FF5D100B591F802C00CF07F0E00EBDD
:104590004E0E4FEADC1C0EF80C3091F800C061445E
:1045A0008A4209D991F801C0BCF1050FEBD091F80E
:1045B00000C061448A42F5D85DF804FB704700BF33
:1045C0002DE9F0418E4682B0009390F800C0089E1D
:1045D000BDF824706EF3000C0446154601233146E5
:1045E0003A4600F808CBBDF82C8000F05DF906B122
:1045F0003FB901200A9BA4F80280636002B0BDE8C5
:10460000F08104F11C063046FCF724FF0DB135465D
:104610000026C4E90556ECE701207047F8B50646C8
:10462000084610F8083B0C4613F0020F0CBF402759
:104630004FF40077154600F067F930B92DB1013F0E
:104640002F4202D12378DA0701D50020F8BD304689
:104650006178FFF7E7F90028F7D0237813F001031A
:1046600007D04FF0E023D3F8F03DDB07EDD500BED7
:10467000EBE71A4630466178FFF7F8F90028F0D0EA
:10468000F8BD00BF70B501F10805064628460C4686
:1046900000F03AF910B12378DA0701D5002070BD97
:1046A00030466178FFF7BEF90028F7D028466288C7
:1046B000616800F07DF92378054603F0010340B1FD
:1046C00073B14FF0E023D3F8F03DDB07E6D500BE31
:1046D000E4E7002BE2D130466178FFF7B5F9DDE77A
:1046E0000346626830466178FFF7C0F90028E8D0D9
:1046F000284670BD8A89F8B50C4605460B781AB96C
:10470000DE0732D50020F8BD01F1080713F0020FD3
:1047100038460CBF40264FF4007600F00FF9864271
:10472000F0D82378DA07EDD428466178FFF77AF9D4
:104730000028E7D0384600F001F92378864203F0DC
:1047400001032FD8CBB976426388304080B29842BB
:1047500028BF18466178064658B362683346284633
:10476000FFF784F948B13046F8BD4978FFF75AF9A8
:104770000028C7D02378D90707D54FF0E023D3F816
:10478000F03DDB07BED500BEBCE7638861783BB176
:1047900062682846FFF76AF90028EED06088F8BD05
:1047A0001A46F6E7002BADD128466178FFF74CF9A1
:1047B000A8E70246D2E700BF10B58646D41ABEF875
:1047C00004C0A4B29A423CBF04EB4C04A4B2084615
:1047D000E4B1A4450CD2944594BFA2EB0C02624410
:1047E00093B29C45AEF80A3004D8A3EB0C039BB2FD
:1047F0009C45FAD9BEF80620DEF80010C2F30E027E
:1048000002FB03113AF072F9012010BD204610BDE1
:104810002DE9F047BDF8204085881E1BB6B2A342A3
:104820003CBF06EB4506B6B207468846DEB1B54248
:1048300031D3964228BF1646A54203D8641BA4B2C2
:10484000A542FBD9B7F806902B1B39689BB2C9F378
:104850000E029E42914602FB041107D8404606FB19
:1048600002F23AF043F93046BDE8F08713FB02F359
:104870001FFA83FA524640463AF038F9731BE218A1
:1048800012FB09F2396808EB0A0092B23AF02EF9ED
:104890003046BDE8F0879D4294BF5B1B5B199CB21C
:1048A0002E464481C5E700BF2DE9F041B2F5004F27
:1048B0009DF8188024D80446C06817460E461D4649
:1048C00018B14FF0FF313AF057FB206918B14FF0A3
:1048D000FF313AF051FB0022C5F30E03E06843EAD2
:1048E000C83362812660A780E380228108B13AF054
:1048F00053FB206908B13AF04FFB0120BDE8F0817D
:104900000020BDE8F08100BF038942899BB292B2CA
:104910008088934236BFC2EB40029B1A9B189BB221
:10492000984228BF184670470289438990B29BB2CB
:10493000C01AB0FA80F04009704700BF038942896D
:104940009BB2808892B2934236BFC2EB40029B1A60
:104950009B189BB2984286BFC01A80B20020704755
:1049600038B5044600690D4618B14FF0FF313AF0F2
:1049700003FB2289638929469BB292B22046FFF746
:104980001BFF6289A18892B283189BB29A420546A6
:104990004FEA410209D8B3EB410F06DA206963817F
:1049A00008B13AF0F9FA284638BD9B1A9BB2F5E7F0
:1049B00070B5044600690D46164682B018B14FF036
:1049C000FF313AF0D9FA23896089294680B232460C
:1049D00000909BB22046FFF71BFF6289A18892B22C
:1049E00083189BB29A4205464FEA41020AD8B3EBBC
:1049F000410F07DA2069638108B13AF0CDFA284601
:104A000002B070BD9B1A9BB2F4E700BFF8B5044634
:104A1000C0680E4618B14FF0FF313AF0ADFA258963
:104A2000238961899BB289B2A2888B4236BFC1EBD0
:104A300042015B1A5B189BB29A42ADB208D8E77983
:104A4000FF0905D1E06808B13AF0A6FA3846F8BD8A
:104A5000954228BF2B4618D39B1A9BB29342FBD298
:104A6000E2882068C2F30E0202FB030031463AF0EE
:104A70003DF86B1C9BB29D42A28812D900235100C5
:104A80005B1A9BB201272381DCE7E2882068C2F32E
:104A90000E0205FB020031463AF028F80135A288E3
:104AA000ABB2B3EB420F4FEA4201EBDBE8E700BFEA
:104AB0002DE9F04F174683B0002A75D00646C0682E
:104AC000894618B14FF0FF313AF056FAF379B6F84B
:104AD00008807289DB09B5881FFA88F892B23CD148
:104AE000904536BFC2EB4502A8EB0202424492B2A7
:104AF000AA425ED2AA1A92B2BA4228BF3A46B6F881
:104B000006B097B27B1B08EB070ACBF30E0B9BB2E8
:104B10001FFA8AFAA845444603D3641BA4B2AC42E8
:104B2000FBD22D1B3068ADB2BD420BFB040057D346
:104B300049460BFB07F239F0D9FFB288D0454FEA5E
:104B4000420302D8BAEB420F03DBAAEB03031FFABE
:104B500083FA3D46A6F808A02CE0B6F806B0AF42AE
:104B6000CBF30E0B2FD2904536BFC2EB4501A8EB1D
:104B70000201414489B2680039447B1B81429BB2E7
:104B80000DDB02EB050A1FFA8AFAAAEB07081FFAE7
:104B900088F8424537D9A8EB00001FFA80F807EBE8
:104BA000080A1FFA8AFAB5E71546284603B0BDE899
:104BB000F08F0025F0680028F7D03AF0EDF928468C
:104BC00003B0BDE8F08F002DF4D07F1B02EB050A87
:104BD0000BFB079990462F4600231FFA8AFA99E7A4
:104BE00015FB0BF5ADB22A464946019339F07EFF1D
:104BF000019B3068E21812FB0BF209EB050192B23F
:104C000039F074FF99E7404584DCC4E710B50446E9
:104C1000C06818B14FF0FF313AF0AEF9206918B111
:104C20004FF0FF313AF0A8F90023E0686381238157
:104C300008B13AF0B1F9206908B13AF0ADF90120B4
:104C400010BD00BF38B50446C0680D4618B14FF01E
:104C5000FF313AF091F9206918B14FF0FF313AF085
:104C60008BF9E379E06865F3C713E37108B13AF0B3
:104C700093F9206908B13AF08FF9012038BD00BFDF
:104C80002DE9F04706464FF0020906200D46FDF7D4
:104C9000F5F831464C4651F8047F4FEAD55E6A027A
:104CA00001F5405A4FF000081346F4462740CAF871
:104CB000009007E0D31804F102044EEB0C0CB4F59D
:104CC000807F03D0984278EB0C09F3D24FF48073C5
:104CD000C4EB042201E0012B1AD0B0FBF2FCAC457E
:104CE0009E46A2EB040203F1FF33F4D90EFB04FE4F
:104CF0001B023461326801F50051534003F47F43D5
:104D000006F580563360B0FBFEF00F60BDE8F0871B
:104D1000A6460023EDE700BF174AF8B5904214BF3E
:104D20004FF400224FF480220546144E144B154CCC
:104D300032601A60A36832EA0303FBD12846FFF70A
:104D40009FFF2B460226032753F8044F05F5005119
:104D500003F5405216602A6803F5005382F00702FB
:104D600005F5805C344002F0CF02CCF800201C60D6
:104D70004F621E60F8BD00BF0000084000200240E6
:104D800000300240000002402DE9F04FA5B0064679
:104D900014F0B8FC0546304614F0B0FC122D044661
:104DA00007D0152D18D0182D00F0A88025B0BDE82B
:104DB000F08F304614F0AAFC03780546022BF5D09C
:104DC00017220021204606F0CBFB0646002800F003
:104DD000668102232B70E9E7304614F0FDFD04AE36
:104DE000074630460DF0C2F834220021204606F076
:104DF000B7FB28B19DF8333043F001038DF8333011
:104E000032460021204601F07DF96922002120462A
:104E100006F0A6FB6A2205460021204606F0A0FB0C
:104E2000002182B208464FF00008ABB2A58A0DF10E
:104E30004809ED1A65F30F01258B2B4463F30F002E
:104E4000E38A02AD9B1A63F31F41638B02911A44FC
:104E500062F31F4039460390484601F09DFCD24B57
:104E60001A214A46204613931696CDF85080CDF865
:104E70007C80159514F008FC17224146204606F068
:104E80006FFB10B1BDF9103063B92A463146384680
:104E90000DF092F84A461B21204614F0F5FB25B090
:104EA000BDE8F08F2A4631463846DDF820B0CDF80F
:104EB00020800DF081F8182011F022FC824604F1C8
:104EC00014014346BDF910200CF0E8FC504604F5EF
:104ED00090710BF0C5FEBBF1000FDBD02A463146C6
:104EE0003846CDF820B08DF813808DF832808DF8DB
:104EF0003A808DF846800DF05FF8CBE7304614F02D
:104F00006BFD02AD2A4607466946204605F094FF30
:104F100068460FF0D5FC20B928460FF0D1FC0028D8
:104F20005AD004AE30460DF021F821224FF48031E2
:104F3000204606F015FBC0B202288DF8130000F2DF
:104F4000358131224FF48031204606F009FBC0B292
:104F500002288DF8320000F2178145224FF480318B
:104F6000204606F0FDFAC0B202288DF8460000F295
:104F700026814FF48031204607F0D0FCFC289DF8B4
:104F8000131040F2BE809DF846309DF832200A434F
:104F90001A4321D00B224FF48031204606F0E0FA6C
:104FA0000DF14809ADF810003946484601F0F4FB10
:104FB000022314934FF480331F937B4B684616965D
:104FC00013930FF07DFC002840F0228128460FF05B
:104FD00077FC002840F0B88017220021204606F018
:104FE000BFFA002840F0C28034220021204606F09B
:104FF000B7FA00283FF4DAAE00260DF11009484652
:105000000CF0B4FF4A46314620468DF813608DF807
:105010002A608DF83A608DF8466001F073F83146E9
:105020006922204606F09CFA804631466A222046D4
:1050300006F096FA31463246B4F814C01FFA88F3E7
:10504000ACEB030C6CF30F01B4F818C080B26344EE
:1050500063F30F02E38A1B1A63F31F41638B029110
:10506000184460F31F42394612A8039201F094FBE2
:10507000012314934C4B12AA1A2120461393CDE915
:1050800015591F9614F000FB2A46494638460CF085
:1050900093FF1B21204612AA14F0F6FA86E6014679
:1050A0000B22204606F05CFA692231460FFA80F89E
:1050B000204606F055FA07466A223146204606F099
:1050C0004FFAB446BBB2374681B2A08A4246C01AF4
:1050D00060F30F0C208B034463F30F07E38A6868C7
:1050E0005B1A63F31F4C638BCDF848C0194461F31E
:1050F0001F4712A913970FF065FE98B901232B7073
:1051000054E611FB00F10B1210FB03F3C1F307216E
:10511000C3F307231A468DF813108DF832308DF83B
:10512000463034E721223146204606F019FAC0B253
:10513000FC28E3D960223146204606F011FAC3B2BA
:10514000FC2BDBD92E7031E64A461A2120461595F4
:1051500014F09AFA31462A46384615950CF02CFF81
:105160004A461B21204614F08FFA35E704F590706B
:105170000BF042FE064600283FF436AF0BF0DEFE91
:10518000304611F075FB2FE732224FF48031204674
:1051900006F0E6F900B20028ADF830001EDC00236E
:1051A0008DF83230D9E600BFACFE031020224FF458
:1051B0008031204606F0D4F9ADF81400C1E6402253
:1051C0004FF48031204606F0CBF900B20028ADF84C
:1051D0003E000CDC00238DF84630CAE630224FF446
:1051E0008031204606F0BCF9ADF82E00B5E643222A
:1051F0004FF48031204606F0B3F94422ADF8440064
:105200004FF48031204606F0ABF9ADF83C00B0E633
:105210004A461A212046CDF854D014F035FA6A4691
:10522000314638460CF0C8FE4A461B21204614F091
:105230002BFACBE610B50C46084614F07FFA002096
:1052400006F088F90021144A204606F091FC01205E
:1052500006F080F9002120460FF0A0F8A368CBB13A
:105260009A6822B1204614F0BDFEA36893B1186875
:1052700020B111F09BF90022A3681A60D86820B110
:1052800011F094F90022A368DA60184611F08EF943
:105290000023A36010BD00BFFFFF0F002DE9F04108
:1052A0004E680C462EB3304604F0C6FC0746304626
:1052B00003F0F6FF1022002180463046F58A06F002
:1052C0004FF92B18A3EB08039BB25A1EE3826283AB
:1052D000002112223046B58A06F042F94BF67633A9
:1052E0000544E81B80B2421EA0822283E361BDE830
:1052F000F08141F67603E361BDE8F0812DE9F04FDE
:10530000B0F820B08BB08B4508D00A4601840C461B
:105310005946064607F07AF9814610B90BB0BDE848
:10532000F08F4FF4207011F0EBF94FF420710490DE
:1053300011F0CEFD738C13F47C7F5ED00025E34327
:10534000CDE908B9A846A14605930396039E4FEA06
:10535000C50AF76807EBC504606820F07F4007F0D6
:10536000C5FAF36802905344586820F07F4007F074
:10537000BFFA029B059A834613421CD1E37913F0CE
:10538000020318D14FF6FF7057F835209188166840
:105390008142D27948D072B1012A00F0C88006EB70
:1053A000820131F8020BC0F30D07672F00F0CE80A9
:1053B00001339A42F5D1039B01355B8CC3F305138E
:1053C0009D42C3D34C46DDF820B0039EDDF8249007
:1053D000B8F1000F11D0049D08EB880805EB880890
:1053E000686807F085FA0095014623465A4630461C
:1053F000143507F03FF8A845F2D1049811F038FAB7
:10540000B9F1010F00F0B080B9F1030F00F0B280E4
:10541000B9F1020F82D1304602F04AFA30460BB0A1
:10542000BDE8F04F01F0CCB9002AC4D0304603E00B
:10543000934200F10800BED036F833100133C1F3B7
:105440000D07672FF4D10A04B5D44B0479D446680C
:1054500032681388002B00F09780B8F1000F7DD1DF
:10546000C2461046D6E9037C049B08EB880123F86A
:10547000217003EB8101A1F802C00388B0680AF132
:10548000020A0B81636832F80A20C8607068C3F3AF
:10549000170308F101084B60086182B3B8F1200FCF
:1054A0002DD05746CDE906544FF0000A3D46049CE6
:1054B000574602E00137474534D0D4F804A01434ED
:1054C000504607F013FA02465046924607F010FA8B
:1054D000326834F80CCC515B02EB050E8C45E9D1F7
:1054E0008345E7D1029B5345E4D8BA46C24570468E
:1054F0002F4652D00237D35B002BD5D1069D039B9C
:1055000001355B8CC3F30513AB427FF65BAFB8F19B
:10551000200F7FF41BAF4C46DDF820B0039EDDF872
:10552000249058E7AA467046079C069D9AE7C1F367
:105530000D03672B7FF43FAF0A043FF53CAF4B04EC
:1055400086D5672011F068FF064681E707043FF51E
:1055500032AF4104F5D456F8236079E74FF0000AE2
:10556000CDE9065457469FE730460BB0BDE8F04FF3
:1055700002F09EB94FF6FF724FF4702130460BB027
:10558000BDE8F04F06F0BCB9039B01355B8CC3F35B
:105590000513AB423FF6DAAE14E7BA46DDE906542E
:1055A00060E700BFF0B5084685B00D4614F0AAF8D4
:1055B0000446284614F0A4F8631E0446292B4BD851
:1055C000DFE813F09B004A00A5004A004A004A00A9
:1055D0004A000E012F01AB004A004A00C200E5005C
:1055E00006014A004A004C0052004A004C004A00A2
:1055F0004A004C004A004A004A004A004A004A0059
:105600004A004A004A005C004A0080004A004A0002
:105610004A004A002A008B000922002105F0A0FF61
:105620000A2205460021204605F09AFF80B208B9FB
:10563000EDB215B1204601F0D9FA204608F080F805
:10564000064648B10025A3681B6853F825000135BC
:1056500001F0CCFAAE42F6D105B0F0BD284605B057
:10566000BDE8F040FFF790BB002101F02BF80146A8
:10567000284605B0BDE8F04014F0CCB90122002165
:1056800005F06EFF042200210646204605F068FF63
:10569000092200210746204605F062FF0A22002168
:1056A0000546204605F05CFF80B248B9EDB23DB931
:1056B00042F2D17336B29E4202D03FB29F42CBD16A
:1056C000204605E090F8223043F0020380F82230B3
:1056D00005B0BDE8F04001F089BA08F031F806469F
:1056E0000028B9D00025A3681B6853F825000135B0
:1056F00001F07CFAAE42F6D1AEE7038C43F0200114
:105700009942A9D0204605B0BDE8F040F6E5018CED
:105710008F06A1D521F02001F4E7018C4B0600F1A2
:105720008780204603F090FD022895D169462046E7
:1057300002AA05F081FB6946204602F09BF820464C
:1057400002A902F097F887E7C3691E077CD403F427
:105750000163B3F5016F7FF47FAF00F0B3FC002865
:105760007FF47AAF204604F067FA0646204604F03C
:1057700077FA034628461D4613F0C8FF0378113B0D
:10578000032B3FF669AFDFE803F08F7BB99CC36959
:10579000590565D4A06800B1806814F0EDFD064697
:1057A00014F09CFE002800F0CC8014F09DFE02282E
:1057B00048D004280CBF06210221238C1943002E57
:1057C00000F0B28041F0080199423FF445AF99E7FB
:1057D000018C11F00E0F3FF43FAF21F00E0191E765
:1057E000018C8A0629D4284614F0E6F814F05CFFF0
:1057F00000287FF431AFE3691B077FF52DAF238CC1
:1058000013F0010F33D143F0010102D12046FFF71D
:1058100075FD00221C21204605B0BDE8F04013F0C4
:1058200033BF038C43F040018B423FF415AF69E76F
:1058300021F04001FFF762FD73E721F02001FFF73F
:105840005DFDD0E70621B8E7284613F05FFF027838
:10585000A2F11103032B78D8DFE803F00C060C0645
:10586000012105F0C9F995E7238CDA07D1D523F09A
:105870000101CBE7238CD80743F00101C9D4C5E768
:10588000204603F005FD0546204601F0C9FA031E37
:10589000B8BF033305EBA3010022204609B205B0CF
:1058A000BDE8F04005F046B8204603F0F1FC05469F
:1058B000204601F0B5FA031E00DA0333A5EBA3017D
:1058C000EAE7204603F0C8FC8007EDD0002E01DC9B
:1058D000002DE9DD204603F0D3FC0546204601F00B
:1058E00099FA031EB8BF0333A5EBA301002220469B
:1058F00009B205B0BDE8F04004F0FABE204603F05E
:10590000ABFC8707BCD0002E01DC002DB8DD2046A3
:1059100003F0B6FC0546204601F07CFA031EB8BF32
:10592000033305EBA301E1E78B4203D02046FFF7E9
:10593000E5FC218C0A077FF58FAE21F0080189B2C2
:10594000E0E6284614F038F82FE70A2A3FF484AE40
:105950005FE700BF002800F024812DE9F04FD0F868
:10596000049095B0B9F1000F00F013814FF00008DA
:105970000368A3F1040A5AF8043F8B4200F00D813A
:105980009B68002B00F000815D68002D00F0FC801A
:105990001B682E46043B002457461D468C46CDF816
:1059A000009055F8043F9C4500F0F7809A68002A63
:1059B00000F0E2805368002B00F0DE801268019650
:1059C000043A1E463B46174662464FF00009A4467D
:1059D000144657F8041F8C4200F0DF8088680028C6
:1059E00000F0C0804168002900F0BC800068CDE96B
:1059F0000286A0F1040EF34604954FF0000A4D46CE
:105A000088469946E6465BF8040F844200F0C5805C
:105A10008068002800F09A804268002A00F0968092
:105A20000368CDE907AB043B0026294693469A4616
:105A3000CDE905875AF8040F844200F0AE808068F3
:105A400000287AD04268002A77D003680027043BF8
:105A50008C4690461D46CDF8249055F8040F84429C
:105A600000F09B808068002861D04268002A5ED0E8
:105A70000368CDE90AB8043B0C974FF00009B04623
:105A8000174629469B465BF8040F844200F0858048
:105A90008068002841D04268002A3ED00368CDE9E2
:105AA0000DEC043BBC46CDF844B00025C3461F4670
:105AB00090462646CDE90FA957F8040F86426CD0D0
:105AC0008068E0B14268D2B103681297043B0F4688
:105AD0000024314692469946664659F8040F8142A1
